8=FIX.4.4|9=76|35=A|34=1|49=CLIENT1|52=20250921-18:43:23.554|56=EXECUTOR|98=0|108=30|141=Y|10=151|8=FIX.4.4|9=133|35=D|34=2|49=CLIENT1|52=20250921-18:43:41.101|56=EXECUTOR|11=qw|21=1|38=10|40=1|44=12.40|54=1|55=PETR5|59=3|60=20250921-15:43:41.101|10=224|